:020000040800F2
:1000000030090020B501000887410008DD390008EB
:1000100085410008A11B00084F47000800000000B0
:100020000000000000000000000000008D430008F8
:10003000711D0008000000004142000875440008DE
:10004000CF010008CF010008CF010008CF01000850
:10005000CF010008CF010008CF010008CF01000840
:10006000CF010008CF010008CF010008CF01000830
:10007000CF010008CF010008CF010008CF01000820
:10008000CF010008CF010008CF010008CF01000810
:10009000CF010008CF010008CF010008CF01000800
:1000A000CF010008E9440008CF010008CF01000893
:1000B000CF010008CF010008CF010008CF010008E0
:1000C000CF010008CF010008CF010008CF010008D0
:1000D000CF010008CF010008CF010008CF010008C0
:1000E000731D0008CF010008CF01000800F002F8DE
:1000F00000F050F80AA090E8000C82448344AAF172
:100100000107DA4501D100F045F8AFF2090EBAE86F
:100110000F0013F0010F18BFFB1A43F0010318473B
:10012000B4550000D4550000103A24BF78C878C1F7
:10013000FAD8520724BF30C830C144BF04680C60ED
:10014000704700000023002400250026103A28BF35
:1001500078C1FBD8520728BF30C148BF0B60704739
:10016000662905F02382642900F060800020704732
:100170001FB500F0E1FD04000020002104F016FD91
:10018000401C60600020002104F0FAFCE0601FBD0C
:1001900010B510BD01F092F81146FFF7E9FF04F029
:1001A00017FB01F0B9F803B4FFF7F2FF03BC01F04D
:1001B000BDF800000948804709480047FEE7FEE710
:1001C000FEE7FEE7FEE7FEE7FEE7FEE7FEE7FEE707
:1001D00004480549054A064B70470000E5440008FD
:1001E000ED00000830030020300900203005002019
:1001F000300500200FB47CB50C0009AA009001D096
:100200002044401E084B7B4469460190089800F04A
:100210002EFD05461CB10020694600F03BFD284636
:100220007CBC5DF814FB0000950A00002DE9F0414C
:100230000646002410687529314616A510D0AFF384
:100240000080002802DA404213A507E031688A07DF
:1002500001D512A502E0490704D511A5012401E04A
:10026000AFF3008000210A2206F1240709E0B0FB69
:10027000F2FCB0FBF2F302FB1C003030785418465D
:10028000491C0028F3D123462A463046BDE8F041F8
:1002900000F07FBA000000002D0000002B000000DD
:1002A000200000002DE9F0474FF0000A894604467F
:1002B000C0F820A02046E1688847002876D025288D
:1002C00006D0D4E901219047206A401C2062F1E762
:1002D000E168204600258847C4F81CA00646002790
:1002E000C4F818A02A2E09D0304604F055FA38B3C5
:1002F00004EB8708303EC8F8186019E059F8041B71
:10030000204604EB87029161E1688847012F064689
:1003100018D1E069002820DA25F020051DE0D8F882
:10032000180000EB800006EB40003038C8F81800D9
:100330002046E1688847064604F02EFA0028EED1F0
:10034000012F0AD02E2E08D12046E16888477F1C55
:100350000646022F45F02005C4DBA069002803DA19
:10036000404245F00105A061E80701D025F01005E5
:10037000B6B1A6F14100192802D8203645F400652F
:100380004A463146204625604D46FFF7E9FE58B102
:10039000012806D0ED1D25F0070000F1080989E7C6
:1003A00004E005F1040985E730468AE7206ABDE8E4
:1003B000F08700000FB400B58DB010A9099000912E
:1003C0000B904FF0FF300A9000200C9006487844C4
:1003D0000690064878446A4607900F9909A800F0ED
:1003E0007BFC0DB05DF814FB270900003F090000FD
:1003F0002DE9FF5F1D464FF0FF3B91464FF000088F
:100400005F46D5E90146A96901987F1C8847296A9A
:10041000824688470028F6D1BAF1FF3F0CD0002E63
:1004200024F4C06419DD600614D5BAF12B0F09D08D
:10043000BAF12D0F0ED103E0584604B0BDE8F09F8D
:1004400044F48064A96901987F1C8847761E82461F
:10045000002E02DDBAF1300F03D0B9F1000F26D023
:1004600032E0A969761E01987F1C44F40074884725
:10047000002E824605DDBAF1780F06D0BAF1580F8A
:1004800003D0B9F1000F10D01EE0B9F1000F02D077
:10049000B9F1100F18D1A969761E01987F1C24F4B8
:1004A000007488478246102002E0082000E00A20FD
:1004B000814609E0A96908FB0908761E01987F1C9E
:1004C00044F4007488478246002E05DD49465046B4
:1004D00000F0EDFB0028EDDAE96901988847A005F6
:1004E00002D46FF00100A8E7E00725D1600613D51C
:1004F000600502D5C8F1000000E0404629680A1DE9
:100500002A600968220501D5087015E0220701D587
:10051000088011E008600FE02868011D296000686C
:10052000210502D580F8008006E0210702D5A0F859
:10053000008001E0C0F8008038467EE72DE9FF5FCB
:100540004FF000089946144646469169D2E901A742
:10055000DDF838B001988847054659EA0B0005D008
:1005600009E0A1690198761C88470546216A28465A
:1005700088470028F5D1681C03D05FEACA7005D00F
:1005800015E04FF0FF3004B0BDE8F09F2068011D7A
:100590002160D0F800800AE05FEACA7001D108F853
:1005A000015BA169761C01987F1E88470546002FD4
:1005B0001ADD681C18D0B9F1000F0DD0E81705EB53
:1005C000D060421120F01F0059F822102A1A012091
:1005D00090400142E0D107E0BBF1000FDCD128469A
:1005E000216A88470028D7D0E16901988847BBF184
:1005F000000F07D1002E05DD5FEACA7002D100218D
:1006000088F80010A068B84203DDBBF1000F03D0EA
:1006100017B16FF00100B6E73046B4E710B5431CE0
:1006200002E010F8011B71B18107FAD14FF00132DD
:1006300002C88C1A8C4314EAC211F9D0C01A0A06F7
:1006400003D0C01E10BDC01A10BD0A0401D0801E08
:1006500010BD0902FCD0401E10BD10B5203AC0F0FC
:100660000B80B1E81850203AA0E81850B1E81850B3
:10067000A0E81850BFF4F5AF5FEA027C24BFB1E8F0
:100680001850A0E8185044BF18C918C0BDE8104061
:100690005FEA827C24BF51F8043B40F8043B08BF6A
:1006A0007047D20728BF31F8023B48BF11F8012B31
:1006B00028BF20F8023B48BF00F8012B70474FF0DD
:1006C000000200B5134694469646203922BFA0E8A2
:1006D0000C50A0E80C50B1F12001BFF4F7AF0907AE
:1006E00028BFA0E80C5048BF0CC05DF804EB89009F
:1006F00028BF40F8042B08BF704748BF20F8022BE2
:1007000011F0804F18BF00F8012B70474FF0013CEB
:1007100050F8042B51F8043B9A4221D1A2EB0C0370
:10072000934313EACC1317D150F8042B51F8043B30
:100730009A4215D1A2EB0C03934313EACC130BD1CD
:1007400050F8042B51F8043B9A4209D1A2EB0C0358
:10075000934313EACC13DBD04FF00000704700BF87
:10076000D01A01BAB1FA81F101F0180122FA01F0B0
:10077000CB40C1F12001DBB2C0B2C01A2CFA01F3A8
:10078000D11A914311EAC311E6D1704770477047FF
:1007900070472DE9F0470D4699469246044600F110
:1007A00024080168880604D5E06921F01001216061
:1007B00000E00120A84201DD471B00E00027A169FD
:1007C0007A1902EB0900081AA0612078C00602D449
:1007D0002046AFF30080002608E0D4E901211AF892
:1007E00006009047206A401C761C20624E45F4DBD0
:1007F0002078C0060AD52046AFF3008006E0D4E991
:10080000012130209047206A401C2062381EA7F149
:100810000107F4DC07E0D4E9012118F8050090474E
:10082000206A401C2062281EA5F10105F3DC204649
:10083000AFF300802078000602D50220BDE8F087E3
:100840000120FBE770472DE9FF4F0C461E464FF095
:10085000FF378BB0D2E90001DDF860800A908A464C
:10086000C1F30A5505B93D46002108464FF0000086
:10087000BAF1000F00F4400005DA00EB80004FF4FD
:10088000400101EA50004FEA9059B9F1010F00DD33
:10089000B9460A9850EA4A000ED044F61050A5F224
:1008A000FF3545432F14B8F1000F1ED07542291EA5
:1008B0001EDDC9F100021CE0B8F1010F4FF000008D
:1008C00001D0302103E0F24305E02154401CB04246
:1008D000FBDB30460022002121540B99C1F808802F
:1008E000C1E900200FB0BDE8F08FBD1B6D1CDEE735
:1008F0004A4600DA694206A800F06AFC06AB93E8B3
:10090000070003AB83E8070050460A9900F015FD85
:100910008DE80700A0F500501F3800900398002DC7
:100920000ADD42F21F014A460844002303A903904E
:10093000684600F07EFF09E0A0F500504A461F38E7
:10094000002303A90390684600F088FF8DE80700A4
:100950000004000C03D04FF0FF30410800E01046C7
:10096000B8F1000F03D00022009215461EE0751E5C
:1009700005D400F0E5F9303262556D1EF9D5B34665
:100980000122084302D000227F1C04E02078302896
:1009900001D100227F1E002A099784D01DE0112D6D
:1009A00007DA00F0CDF9303262556D1C50EA0102D1
:1009B000F5D1084302D00098C8B10EE00021681EAE
:1009C00005E0235C625C63542254401E491C814252
:1009D000F7DBAB46A81B401E0990002004F80B0073
:1009E0000B98099AC0F80880C0E9002B7AE7112615
:1009F0004FF0000857E72DE9F04F88460446D21D16
:100A000022F0070191B0D1E90001CDE90A0103F01C
:100A10009FFE02460B98C00F01D02D2007E02068F2
:100A2000810701D52B2002E0202101EAC000032A22
:100A3000099001D0072A05DB03464146204600F015
:100A4000CDF90BE12078800601D5E06900E00620B1
:100A5000B8F1650F814606D0B8F1660F18D0B8F12D
:100A6000670F70D131E00020B9F1110F009001DB68
:100A7000112301E009F101030AAA01A90CA8FFF75B
:100A8000E2FEDDE90C70002609F10105834647E02E
:100A900001204B4600904FF000470AAA01A90CA87C
:100AA000FFF7D1FEDDE90DB00C995D46002610B9C7
:100AB00009F101000D18B9EB050003D4C0F1FF36B0
:100AC00009F10105A5EB09002BE0B9F1010F01DAED
:100AD0004FF001090020B9F1110F0090484601DDE7
:100AE000112300E003460AAA01A90CA8FFF7ABFEF8
:100AF000DDE90C704D4600268346207800070AD4B5
:100B0000AB4500DA5D4601A8012D04DD411911F85D
:100B1000011C302907D04F4502DA17F1040F04DA1F
:100B2000012082460FE06D1EEEE7002F02DCED1B78
:100B30003E4403E0781CA84200DD7D1CB81B00F198
:100B4000010A4FF000472078000703D4AA4501DBD3
:100B50004FF0FF3A0021B7F1004F0DF143088DF837
:100B6000431024D002202B23002F01DA7F422D23B3
:100B70000A21021EA0F1010000DC5FB197FBF1FC2D
:100B800097FBF1F201FB1C7C17460CF1300C08F8C6
:100B900001CDEEE7A8F1010003702188090501D518
:100BA000452100E06521A0F1010800F8011C099829
:100BB0000FA9A1EB0807FF1D00B10120411901EBAE
:100BC000EA70A1693844081A401EA0612078C00666
:100BD00002D42046AFF30080099828B1D4E901215E
:100BE0009047206A401C20622078C00622D520460B
:100BF000AFF300801EE0002E04DBB34502DD01A848
:100C0000805D00E03020D4E901219047206A401C3B
:100C10002062761CAAF101005FEA000A0AD100F006
:100C20008BF8C0680168405CD4E901219047206AD4
:100C3000401C2062281EA5F10105DCDC07E0D4E998
:100C4000012118F8010B9047206A401C2062381ED1
:100C5000A7F10107F3DC2046AFF30080032011B0B9
:100C600041E6000001694A1C02610878704700B53E
:100C70008FB0CDE901310021059105497944CDE9D5
:100C8000031011466846FFF70DFB0FB000BD0000D2
:100C9000E5FFFFFF0A6802F8010B0A607047D1E91F
:100CA00000239A4202D2531C0B60107070473A28FE
:100CB00000D2303820F02002412A01D3A2F13700BF
:100CC000884201D34FF0FF307047000002681144A2
:100CD0001378016018467047D16005497944516125
:100CE00004497944116200211161114600F0B6B83F
:100CF000EDFFFFFFE5000000426842B1016811F816
:100D0000013B23B1521EC0E9001218467047012171
:100D1000C160881E704742685AB1C368016843B910
:100D200083688B4205D0491E521CC0E90012002086
:100D300070474FF0FF30704700487047EC020020CA
:100D400030B5B0F10A024FEA900E71F100034EEA9D
:100D5000817EB0EB0E0061EB91014FEA101E4EEA6E
:100D6000017E10EB0E0041EB11114FEA102E4EEAFE
:100D7000016E10EB0E0041EB11214FEA104E4EEACE
:100D8000014E10EB0E0041EB1141401841F1000102
:100D90004FEAD00040EA41704FEAD10110EB8005E4
:100DA0004FEA810444EA907444EB01046D1944EB6A
:100DB0000404521BA3414FF0000348BF0A3200D580
:100DC00030BD401C41F1000130BD10B5044600F0BB
:100DD0009BFA0068005D00F0010010BD2DE9F041B4
:100DE0001F46044603260168072A01F4006004DB5D
:100DF00008B116A505E016A503E008B115A500E0A9
:100E000015A521F010002060A069C01EA0610FB1DF
:100E1000401EA0612046AFF300804FB1D4E901210C
:100E200038469047206A401C2062C01C206206E0C1
:100E3000206AFAE7D4E9012115F8010B9047761EE4
:100E4000F8D22046AFF30080BDE8F0814E414E005D
:100E50006E616E00494E4600696E66002DE9F34FE3
:100E60004FF0000A0C4656468DB001200C9001F15F
:100E70000C000B9062690B9801219047051E2DD044
:100E8000252D2CD0216A8847C0B162690B980121B9
:100E90009047216A88470028F7D16269411E0B9864
:100EA000904700E0761CA1690D988847216A884721
:100EB0000028F7D1E1690D988847DBE7A1690D9813
:100EC0008847A842074601D1761CD3E7E1690D980F
:100ED00088477F1C02D1BAF1000F6FD06CE16269C4
:100EE0000B9800273D46394690472A2804D162696D
:100EF0000B98012190470125DFF8D08262690B9899
:100F000001219047A0F130010A290AD24745E5DCCA
:100F100007EB870100EB4107303FDFD445F01005B8
:100F2000ECE7E90601D46FF000476C280AD04C28A2
:100F300014D0682815D06A280DD074281CD07A28BF
:100F40001AD01DE062690B98012190476C2802D0ED
:100F500045F0040514E045F002050DE045F02005DC
:100F60000AE062690B9801219047682802D045F099
:100F7000080505E045F4006562690B98012190477A
:100F8000C4E9015765283DD019DC58287AD00CDC1B
:100F9000452837D004DC252826D041289ED131E0D1
:100FA00046282FD0472899D12CE05B2877D061289C
:100FB00028D063287CD0642823D15AE0F7E06F283A
:100FC00048D008DC66281DD067281BD0692821D0AE
:100FD0006E2816D127E0702845D0732868D0752870
:100FE00047D078280DD14DE0A1690D988847252874
:100FF00005463FF469AFE1690D9888476D1C3FF4E1
:101000006AAFD9E00D9923466A466FF00100AFF34D
:101010000080C6E045F0400023464FF000026060CB
:10102000A80736D43EE0E8077FF447AF2068011DEB
:1010300021600068290501D506701BE7290701D545
:10104000068017E7A90703D5F117C0E9006111E78A
:1010500006600FE745F0400023464FF0080260604D
:10106000A80716D41EE040F60E0125EA01006060D4
:1010700016E045F0400023464FF00A026060A807E2
:1010800007D40FE045F040006060A80708D523466C
:1010900010220D996FF00100AFF3008081E007E0AE
:1010A000102223460D996FF00100FFF7A1F978E0B7
:1010B0004FF0000963284F46C8464B46CB4602D046
:1010C0005B2807D039E02079C00601D40120A06058
:1010D000012732E06269D4F80CB00B9801219047E7
:1010E0005E2807D14FF0010949466269D4F80CB077
:1010F0000B989047216939B900210A4603AB43F8A0
:101100002120491C0829FADBD8B3216949B308F129
:10111000010862690B98012190475D28F4D1B9F16B
:10112000000F09D0002003A951F82020D24341F834
:101130002020401C0828F7DB03AB20690028207919
:101140004FEA40701ED05B462246CDF80080CDE9C4
:1011500001970D9900286FF0010020DAAFF30080AD
:101160001FE0C11703AA00EBD1614B1121F01F0151
:1011700002EB8302411A1368012088400343136085
:10118000C7E719E00D99224600286FF0010000978B
:1011900002DAAFF3008004E0FFF7D0F901E0AFF32B
:1011A000008000280ADA401C06D10C9820B14FF0CC
:1011B000FF300FB0BDE8F08F5046FAE7E90701D1E4
:1011C0000AF1010A064400200C9053E6CCCCCC0C6A
:1011D0002DE9F047814616468AB0354878440DC857
:1011E0008DE80D0032487844801C03AC0DC884E8BB
:1011F0000D0041F69B300844372190FBF1F290FB43
:10120000F1F5A5F1800501FB12041B3C02D56442F7
:10121000012000E00020DFF898A080460027FA4473
:10122000AAF1BE0A0EE0E0070AD03246684607EB94
:10123000470101230AEB810100F010FB8DE8070054
:1012400064107F1C002CEED1194F7F44AE3F19E093
:10125000E80715D007EB04100DF1180A90E80E000E
:101260008AE80E00C068F04201D198190890324611
:10127000012306A903A800F0F1FA03AB83E80700F5
:101280006D10641C002DE3D14FF001033246694616
:10129000B8F1000F03A802D000F0CBFA01E000F093
:1012A000DDFAC9E90001C9F808200AB0BDE8F087F5
:1012B000DC44000000487047CC0200207546FFF770
:1012C000F9FFAE4605006946534620F00700854603
:1012D00018B020B5FEF77CFFBDE820404FF00006B7
:1012E0004FF000074FF000084FF0000B21F007010E
:1012F000AC46ACE8C009ACE8C009ACE8C009ACE851
:10130000C0098D467047000010B5FFF715FD001DA0
:1013100010BD00BF9938000010B50446AFF300803F
:101320002046BDE81040FEF73EBF000001491820EE
:10133000ABBEFEE72600020070475FEA400C08BF24
:1013400091F0000F4FEA8C234FEAC12243EA51513A
:101350004FEA1C5018BF00F5F0404FEA300018BFAC
:1013600041F000415FEA6C5C00F02980BCF1FF3F76
:1013700008BF40F080407047130C06BF12044FF0C6
:10138000100C4FF0000C130E04BF12020CF1080CED
:10139000130F04BF12010CF1040C930F04BF920051
:1013A0000CF1020CD30F04BF52000CF1010C1146DA
:1013B0004FF00002A0F11F00A0EB0C00704711F0ED
:1013C000004F08BF704731F000413FF4D5AF0B0C20
:1013D00006BF09044FF0100C4FF0000C0B0E04BFB9
:1013E00009020CF1080C0B0F04BF09010CF1040CED
:1013F0008B0F04BF89000CF1020CCB0F04BF490016
:101400000CF1010CCCF12003A0EB0C0022FA03F349
:1014100002FA0CF241EA030100F10100704720F0EA
:101420007F4C80EA030023F07F47ACEB070303F512
:101430007C5300F0004003F1FF032DE980494FEA9F
:10144000154B09B44FEA144325EA0B4E24EA03482E
:101450000FF2042606EB132749083E785FEA3202B2
:1014600003FB0667C7F5000707FB06F64FEA54378C
:101470004FEAD64606F1020607FB066CCCF1005C8B
:101480004FEA1C472CEA074C07FB06F40CFB06F559
:1014900004EB15464FEA961634BF00204FF000408B
:1014A0004FEAD13706FB07FC4FEA1C4C0CFB0BF74D
:1014B000D21B03FB0CF761EB07010CFB0EF7B0EB43
:1014C000074072EB17420CFB08F734BFA2EB074250
:1014D000B2EB074261EB17414FEA0C444FEA910728
:1014E00006FB07FC4FEA1C4C0CFB0BF7B0EBC740AC
:1014F00072EB573203FB0CF734BFA2EBC742B2EBDF
:10150000C74261EB57310CFB0EF7B0EBC70072EB33
:1015100057720CFB08F734BFA2EBC702B2EBC7024D
:1015200061EB5771039F4FEA816141EA921104EB2D
:10153000CC044FEAD1374FEA826206FB07FC42EA4D
:1015400090124FEA80604FEA1C4C0CFB0BF7D21B49
:1015500003FB0CF761EB07010CFB0EF7B0EB074048
:1015600072EB17420CFB08F734BFA2EB0742B2EB59
:10157000074261EB17414FEA8C554FEA910704EBA4
:101580009C2406FB07FC4FEA1C4C0CFB0BF7B0EB52
:10159000C74072EB573203FB0CF734BFA2EBC742D4
:1015A000B2EBC74261EB57310CFB0EF7B0EBC70053
:1015B00072EB57720CFB08F734BFA2EBC702B2EB19
:1015C000C70261EB577115EB4C254FEA816141EA87
:1015D00092114FEA82624FEAD13742EA901206FB3B
:1015E00007FC44F100044FEA80604FEA1C4C0CFBFE
:1015F0000BF7D21B03FB0CF761EB07010CFB0EF79B
:10160000B0EB074072EB17420CFB08F734BFA2EBBC
:101610000742B2EB074261EB174115EB1C154FEA8D
:10162000813141EA92414FEA823242EA90424FEAE6
:1016300080304FEA0C7644F1000448EA03434EEA56
:101640000B484FF0000EB2EB080C71EB030724BF00
:10165000624639464EEB0E0E4FF0000B0018524119
:1016600049414BEB0B0BB2EB080C71EB03077BF121
:10167000000B24BF624639464EEB0E0E4FF0000BB6
:101680000018524149414BEB0B0BB2EB080C71EBCC
:1016900003077BF1000B24BF624639464EEB0E0E6A
:1016A00051EA020718BF46F0010616EB0E7655F117
:1016B000000254F1000103D5BDE88901BDE80088AE
:1016C000BDE88901BDE80048B619524141EB01016E
:1016D000A3F10103704780807F7E7D7C7B7A7978DF
:1016E000777676757473727171706F6E6E6D6C6CE7
:1016F0006B6A6A6968686766666564646363626189
:101700006160605F5F5E5E5D5D5C5C5B5B5A5A5909
:101710005958585757565655555554545353525275
:101720005251515050504F4F4F4E4E4D4D4D4C4CCD
:101730004C4B4B4B4A4A4A49494948484847474716
:101740004746464645454544444444434343434253
:10175000424242414141002B9C4630D477002BD07D
:101760001CB54FEA370703B44FF010004FF01001DB
:10177000BAF1000F06D0BCF1000FDCBF40F008004A
:1017800040F008014FF000000FBCBDE810400BF125
:10179000010BBBF1010F08BF5FEA170722BF12F16F
:1017A000010211F101014FF0004143F1000300F08B
:1017B000004043EA00007047F9D35708D0E746EAF3
:1017C000064613F1400F4FEA16461FDD13F1200FB6
:1017D000DFBF16430A46002120335B42BED0C3F16F
:1017E000200746EA064602FA07F74FEA164646EA97
:1017F0000706C3F1200722FA03F201FA07F721FADC
:1018000003F14FF0000342EA0702A7E746EA0206A7
:1018100046EA06464FEA164646EA0106BCBF46EAD5
:101820000646360C4FF000034FF000024FF0000167
:1018300094E72DE9804C9A46934670B491E83800BD
:1018400007C831EA400C48BF34EA430C03D5FFF720
:10185000E6FDFFF780FFF0BCBDE8008C2DE9804C71
:101860009A46934670B491E8380007C810F0804F4C
:1018700008BF13F0804F03D100F005F8FFF76BFFAE
:10188000F0BCBDE8008C20F07F4780EA030023F025
:101890007F4C07EB0C03A3F57C5300F00040A3F151
:1018A000FE0392F0000F00F0B38095F0000F00F0FF
:1018B00077802DE901494FEA11404FEA144621EAA9
:1018C000004800FB06FC24EA064708FB06F607FB77
:1018D00008F800FB07F718EB06484CEB164C4FEAEC
:1018E000124B18EB07484FEA15464CEB174022EA1B
:1018F0000B4E0BFB06FC25EA06470EFB06F607FB24
:101900000EFE0BFB07F71EEB064E4CEB164C4FF092
:1019100000061EEB074E4CEB174B18EB0B0840F183
:10192000000018EB0E0B58EB000840F100008F1A76
:101930004FF000013CBFC943661B14BFB5EB040C5C
:1019400000213CBFC943F61B4FEA17444EEA8E0EF6
:1019500027EA04454FEA1C4704FB07622CEA074CC0
:1019600005FB07F70CFB05F604FB0CFC16EB074622
:1019700042EB174216EB0C4642EB1C421BEB0606F1
:1019800058EB0202414146EA9E0601D5BDE80189B5
:10199000B619524141EB0101A3F10103BDE80189F0
:1019A0004FEA14454FEA114724EA054621EA074C5D
:1019B00005FB07F406FB07F70CFB06F105FB0CFC27
:1019C00011EB074144EB17444FEA124711EB0C416E
:1019D00044EB1C4422EA074C05FB07F206FB07F721
:1019E0000CFB06F605FB0CFC16EB074642EB174218
:1019F00016EB0C4642EB1C456A1854F1000148BF37
:101A00007047B619524141EB0101A3F10103704740
:101A100095F0000F37D04FEA11424FEA144721EA00
:101A2000024624EA074C02FB07F106FB07F70CFB12
:101A300006F402FB0CFC14EB074441EB17414FEAA0
:101A4000154714EB0C4441EB1C4125EA074C02FB03
:101A500007F506FB07F70CFB06F602FB0CFC16EB82
:101A6000074645EB174516EB0C4645EB1C42121991
:101A700051F1000148BF7047B619524141EB0101D5
:101A8000A3F1010370474FEA14454FEA114724EAD6
:101A9000054621EA074C05FB07F106FB07F70CFB9F
:101AA00006F24FF0000605FB0CFC12EB074241EB7F
:101AB000174112EB0C4251EB1C4148BF7047921882
:101AC00041EB0101A3F101037047000070B504462A
:101AD00000688168C943C90717D1816821F00101F5
:101AE000816000F09BFD05460AE000BF00F096FD16
:101AF000401B022804D920688068C043C00706D074
:101B000020688068C043C007F0D0002070BDA06A84
:101B100040F01000A062E06A40F00100E0620120A5
:101B200070BD0000F8B50026044600960068816884
:101B3000C943C9072DD0816841F001018160164871
:101B400016490068B0FBF1F000E0401E009000284C
:101B5000FBD100F063FD054616E000BF00F05EFD1E
:101B6000401B022810D920688068C043C0070BD0F2
:101B7000A06A40F01000A062E06A40F00100E0625C
:101B800084F824600120F8BD20688068C043C00745
:101B9000E4D10020F8BD00000C00002040420F00FE
:101BA000FEE700007CB5044618480E466A46818967
:101BB000ADF80410807B8DF806002046019900F0F6
:101BC000DFF80546012E02D0022E07D01CE00121CD
:101BD000606802F0D9FAFF28F9D115E0217C0020D5
:101BE0001F2906D03F2906D05F2906D07F2909D1B9
:101BF00006E05E2006E0BC2004E040F2771001E041
:101C000040F2EE2000F0DCFB28467CBD10000020F6
:101C100000224270416001210170704710B50446F6
:101C2000007828B1606802F0E4FA18B10020607012
:101C3000012010BD01206070002010BD3EB504469B
:101C40000C486A460188ADF8081080788DF80A00C3
:101C50002046029900F094F8002809D169460A1834
:101C60002318401C5278C0B21A720628F7D30020FD
:101C70003EBD00001000002030B50446224887B069
:101C80006A46C188ADF80C10007A8DF80E00204627
:101C9000039900F075F800282AD19DF80200E0733E
:101CA0009DF80300A0739DF804102174BDF8000096
:101CB00010F4784501D0404280B21F291AD03F2944
:101CC0001BD05F291CD0C0F30A0000BF03F0FCF951
:101CD0000E4A0F4B03F00CFA00220E4B02F0AEFF3F
:101CE00002F07AFF606115B180F000406061002071
:101CF00007B030BD00F4FF60E8E740F2FC7101E09E
:101D000040F2FE710840E1E710000020D5E76A2BA1
:101D1000F697AD3FA167F23F1CB50649B1F8032025
:101D2000ADF8002049798DF8021001AA009900F061
:101D300027F81CBD1000002038B505460B480C469E
:101D40002246B0F80910ADF80010C07A8DF80200F4
:101D50002846009900F014F8002805D12178E9738D
:101D60006178A973A178297438BD000010000020A3
:101D700070474FF4806000F047BB72B6FEE700008A
:101D80002DE9F0410646407814460F4678B3F9B283
:101D9000706802F013FAC7F307255DB3002706E069
:101DA000FF21706802F00AFAE0557F1CFFB2BD42C5
:101DB000F6D8681EC6B22246002011E012F8013B98
:101DC0005FF0080180EA030717F0010F4FEA5000A7
:101DD00001D080F08C005B08491E11F0FF01F1D1A9
:101DE000761EF6B2EAD2641E295D81420ED0012031
:101DF000BDE8F0810025C7F3074705E0615D706825
:101E000002F0DCF96D1CEDB2AF42F7D80020EFE72D
:101E1000F8B500250446009590F8240001280BD061
:101E2000012084F824002046FFF750FE2046FFF7EB
:101E300079FE060002D050E00220F8BDA06A20F42E
:101E4000885040F00200A062022000F0CDFC25493D
:101E50000968B1FBF0F0400000E0401E009000284F
:101E6000FBD12068816841F00801816000F0D6FB59
:101E7000074608E000F0D2FBC01B0A2803D92068FF
:101E80008068000715D4206880680007F2D42068B5
:101E9000816841F00401816000F0C0FB074612E058
:101EA00000F0BCFBC01B0A280DD9206880684007E1
:101EB00009D5A06A20F0020040F01000A06284F86A
:101EC00024500120F8BD206880684007E8D4A06A4B
:101ED00020F0020040F00100A06284F82450304657
:101EE000F8BD00000C000020F8B50024009490F824
:101EF00024202546012A12D0012280F824204A6895
:101F00001F23072A0DD20668776B521E02EB82024E
:101F100093409F430B6893401F43776319E002206F
:101F2000F8BD06680D2A0AD2376BD21F02EB820277
:101F300093409F430B6893401F43376309E0F76A60
:101F40000D3A02EB820293409F430B6893401F437C
:101F5000F7620A68072306680A2A0AD3F7680A3A6A
:101F600002EB420293409F438B6893401F43F7600C
:101F700008E0376902EB420293409F438B6893402D
:101F80001F4337610A68102A01D0112A20D1124B51
:101F900002689A4217D193681B0219D4936843F4DC
:101FA000000393600968102912D10C490C4A096892
:101FB000B1FBF2F101EB8101490000E0491E009103
:101FC0000029FBD104E0816A41F0200181620124F3
:101FD00080F824502046F8BD002401400C00002069
:101FE00040420F000068C06C704700002DE9F041CE
:101FF0004FF0000704003D467ED0A06A002628B9B5
:10200000E66284F82460204600F07EF82046FFF760
:102010005DFDA16AC90600D420B1A06A40F010009D
:10202000A06269E0A16A21F4885141F00201A16235
:102030006268E169237B0A4347EA43010A43A168D6
:102040004FF48077B94209D0012907D05FF0000131
:1020500094F814C0BCF1010F02D00AE03946F7E74A
:10206000F3B1A36A43F02003A362E36A43F00103E0
:10207000E3622368D3F804C02CF4694C4CEA010CE9
:10208000C3F804C021688B68DFF870C003EA0C0352
:1020900013438B60A168B9420BD0012909D00CE031
:1020A000DFF85CC0A3690CEB43330B4343F40061DE
:1020B000DFE7218A0D05A5F580152168CB6A23F499
:1020C00070032B43CB62216889680E4B1940914203
:1020D00008D1E662A16A21F0020141F00101A1628A
:1020E000BDE8F081A06A20F0020040F01000A0627C
:1020F000E06A40F00100E0620120F1E7FDF7E1FF56
:1021000000E0FFFFFE0E1FFF10B586B0002100911A
:102110000191029103911A4C03681A4903221A484B
:10212000A34211D18B6943F400738B618B6903F473
:10213000007304938B6943F004038B61896901F098
:1021400004010491012113E0104CA34215D18B69C5
:1021500043F480638B618B6903F4806304938B6920
:1021600043F004038B61896901F0040104910221A9
:10217000CDE90012694600F053F906B010BD000029
:1021800000240140001002400008014000280140E6
:102190002DE9F84300270D460446009700F03EFA6B
:1021A000804620688168C90508D5A06A40F02000F3
:1021B000A06284F824700120BDE8F8834168C90555
:1021C00003D4C06A10F4700F2AD0022000F00CFB78
:1021D0003B490968B1FBF0F62068036939490B42B5
:1021E0004FEA61014FEAA1121FD1C3684FEA611C97
:1021F00013EA0C0F19D103690B4225D1C0681042B4
:1022000022D1142023E0681C0AD02DB100F006FA78
:10221000A0EB0800A84203D920680068800725D5F4
:10222000206800688007EED52DE003690B4202D1DB
:10223000C168114206D0026923490A4206D1C0682A
:10224000084203D1542002E0292000E0FC2046434C
:10225000009816E0681C11D02DB100F0DFF9A0EB5A
:102260000800A8420AD90098B04207D2A06A40F0FC
:102270000400A06284F8247003209DE70098401CAD
:102280000090B042E6D321686FF012000860A06AA7
:1022900040F40070A06220688068C0F342400728C4
:1022A0000CD1207B50B9A06A20F48070A062A06A93
:1022B000C00403D4A06A40F00100A06200207BE7C4
:1022C0000C000020244992244992240070B5044651
:1022D00090F8240001280DD0012084F82400204625
:1022E000FFF720FC02004FF0000005D084F8240026
:1022F000104670BD022070BDA16A40F201239943CF
:1023000041F48071A1621F4D23681F49AB4218D16F
:102310000E6816F4702F14D0A66A46F48016A662D2
:102320000E68760505D5A66A26F4005646F4805652
:10233000A662A66AF6040AD5E66A26F00606E662F2
:1023400006E0A66A26F48016A6625E68E9E7E06207
:1023500084F824006FF00200186020688368C3F3DB
:102360004243072B05D1A84208D1096811F4702F08
:1023700004D0816841F480118160B9E7816841F43B
:10238000A001F9E7002801400424014010B50446EB
:1023900090F82400012807D0012084F8240020466A
:1023A000FFF794FB10B107E0022010BDA16A21F4F1
:1023B000885141F00101A162002184F8241010BD70
:1023C00070B5044600F02AF90546601C02D00448A6
:1023D0000078044400F022F9401BA042FAD370BDFB
:1023E0000000002010B5B0F5806F09D100F030FD7D
:1023F0000449BDE810401422A1F1540001F0FABBD9
:1024000010BD000074000020044910B50A680242A3
:1024100002D00860FFF7E6FF10BD00001404014081
:102420002DE9F84FDFF8B8910024A9F1040B2346F9
:102430000F2709F1040AABF1040EC9E00125A540FC
:102440002A40AA427DD1674ED1F804C0ACEB060801
:10245000B44532D014DCBCF1030F3AD009DCBCF136
:10246000000F2AD0BCF1010F1CD0BCF1020F31D1FA
:102470001DE0BCF1110F17D0BCF1120F2AD119E0E9
:10248000B8F5881F19D006DCB8F5803F15D0B8F52F
:10249000801F1FD111E0B8F5001F0ED0B8F5041F42
:1024A00018D10AE0CB6815E0CB681B1D12E0CB68A1
:1024B00008330FE0CB680C330CE08B682BB1012B99
:1024C0004FF0080303D0456104E0042302E00561F6
:1024D00000E00023FF2A01D8064601E000F10406CF
:1024E0004FEA840501D9A5F12005D6F8008007FA46
:1024F00005FC28EA0C0803FA05F548EA0508C6F8C1
:1025000000804D68ED0062D5374DAE6946F001069A
:10251000AE61AD6924F0030605F001050095334D69
:1025200006EB050CDCF80850A607360F07FA06F88C
:1025300025EA0805DFF8B880404503D14FF00008D0
:1025400017E044E0DFF8AC80404502D14FF00108CD
:102550000FE0DFF8A480404502D14FF0020808E008
:10256000DFF89880404502D14FF0030801E04FF0BA
:10257000040808FA06F848EA0508CCF808804D680F
:10258000D9F80060ED024D4601D5164300E09643B0
:102590002E604D68DAF80060AD02554601D516434D
:1025A00000E096432E604D68DBF80060AD035D46A9
:1025B00001D5164300E096432E604D68DEF80060BA
:1025C000ED03754601D5164300E096432E60641C6A
:1025D0000D682A46E5407FF431AFBDE8F88F000072
:1025E00008040140000011100010024000000140EA
:1025F00000080140000C014000100140001401409F
:10260000C26821EA02030A4043EA024101617047BD
:102610000AB1016170470904FBE7000001488068C6
:10262000704700000000002070B5040004D094F84A
:102630004100002510B106E0012070BD84F8405033
:10264000204601F0F3F8242084F841002068C16896
:1026500021F40051C160204601F0E4FF20680169C7
:1026600021F4904101612068416921F0220141611A
:102670002068416941F0080141612068C16841F466
:102680000051C1606564202084F8410084F8420054
:102690006563002070BD0000024881680278114423
:1026A0008160704700000020074810B5016841F0C4
:1026B00010010160032000F075F80F2000F006F80B
:1026C00000F024F8002010BD0020024070B50D4D30
:1026D00004464FF47A712878B1FBF0F00A49096892
:1026E000B1FBF0F000F0A5FE48B9102C07D2002293
:1026F0002146501E00F036F800206C6070BD0120AD
:1027000070BD0000000000200C0000200C4808B53F
:10271000816941F001018161816901F0010100914C
:10272000C16941F08051C161C06900F080500090E2
:102730000448416821F0E06141F00071416008BD4A
:102740000010024000000140002809DB00F01F02D9
:10275000012191404009800000F1E020C0F8001103
:1027600070470000F0B40E4B1B680C46C3F3022305
:10277000C3F10705042D00D90425191D072901D22D
:10278000002300E0DB1E012606FA05F1491E214068
:1027900099409E40761E16403143F0BC01F0ECBFDC
:1027A0000CED00E0064900F0070208684FF6FF0351
:1027B000184040EA0220034A1043086070470000B6
:1027C0000CED00E00000FA050648026822F0040261
:1027D0000260012903D040BF20BF20BF704730BF37
:1027E0007047000010ED00E010B501460020234CBA
:1027F000012922D0022939D010291DD1616822680F
:10280000D20119D51E48C1F38342C903805C0AD5A1
:1028100061681B4AC1F34041921E515C194AB2FBE8
:10282000F1F1484301E0174948436168490203D484
:1028300040000321B0FBF1F010BD226AC2F3012178
:10284000012903D1920701D5C80310BD022905D182
:10285000626A920702D549F6404010BD0329FCD1B7
:1028600021688903F9D547F6122010BD00F028F938
:102870006168C1F38131491C4900DBE70010024067
:10288000C455000800093D002DE9F84305460078CD
:10289000354CC00754D0E0690026C00008D4E06978
:1028A00040F08050E061E069012600F08050009027
:1028B0002E480168C90512D40168804641F4807130
:1028C0000160FFF7ABFE074605E000BFFFF7A6FE7D
:1028D000C01B642823D8D8F80000C005F6D5206AAC
:1028E00010F4407021D0A98801F4407181421CD0BD
:1028F000206A1F49012220F440700A6000220A6009
:102900002062C00711D0FFF789FE074641F28838E0
:1029100008E000BFFFF782FEC11B414502D903203A
:10292000BDE8F883206A8007F4D5206A696820F43E
:102930004070084320621EB1E06920F08050E061E1
:102940002878800705D56068A96820F440400843CE
:1029500060602878C00605D56068E96820F48000CA
:10296000084360600020DBE7001002400070004078
:10297000400442422DE9F0470F46050061D0434E26
:10298000306800F00700B84209D2306820F0070034
:1029900038433060306800F00700B84251D12868F1
:1029A0003B4C810712D5400703D5606840F4E060D6
:1029B00060602878000703D5606840F4605060606C
:1029C0006068A96820F0F000084360602878C007BC
:1029D00028D06868012810D02168022810D0890703
:1029E00000292EDA616821F0030101436160FFF7DD
:1029F00015FE804641F288390DE021688903EFE732
:102A00008901EDE7FFF70AFEA0EB0801494502D96D
:102A10000320BDE8F0876068696800F00C00B0EB47
:102A2000810FEFD1306800F00700B8420BD9306851
:102A300020F0070038433060306800F00700B842EB
:102A400001D00120E5E72878400705D56068E968EE
:102A500020F4E060084360602878000706D56068CD
:102A6000296920F4605040EAC100606000F038F845
:102A70006168084AC1F30311515CC8400649086007
:102A800006480068FFF722FE0020C2E7002002404F
:102A900000100240D45500080C0000200400002063
:102AA0000448054900684968044AC1F30221515CA1
:102AB000C84070470C00002000100240E455000898
:102AC0000448054900684968044AC1F3C221515CC1
:102AD000C84070470C00002000100240E455000878
:102AE0000F4A516801F00C00042803D0082803D0D5
:102AF0000C4870470C4870470C48C1F38343C90326
:102B0000C05C0AD55168094AC1F34041921E515C2C
:102B1000054A5043B0FBF1F0704703494843704702
:102B20000010024000127A0000093D00B255000872
:102B30002DE9F84F040070D02078C04DC00749D06F
:102B40006868C0F38100012807D06868C0F381007D
:102B5000022809D16868C00306D52868800339D5E2
:102B600060680028E7D035E06068B0F5803F0BD0A2
:102B700010B1B0F5A02F11D0286820F48030286063
:102B8000286820F4802002E0286840F48030286023
:102B9000606890B1FFF742FD06460AE0286840F4FD
:102BA00080202860F0E700BFFFF738FD801B642815
:102BB00073D828688003F7D50CE0FFF72FFD064691
:102BC00005E000BFFFF72AFD801B6428F0D82868C5
:102BD0008003F7D420789A4E80074FF001094FF018
:102BE000000839D5686810F00C0F07D06868C0F38A
:102BF0008100022809D16868C00306D428688007CC
:102C000014D52069012808D110E02069B0B1C6F8B8
:102C10000090FFF703FD074605E00AE1FFF7FEFC21
:102C2000C01B0228C4D828688007F7D528686169C6
:102C300020F0F80040EAC10028600DE0C6F80080EE
:102C4000FFF7ECFC074604E0FFF7E8FCC01B022896
:102C500023D828688007F7D4207800072CD5794836
:102C6000A169D9B1C0F80090FFF7D8FC074604E08D
:102C7000FFF7D4FCC01B02280FD8686A8007F7D57D
:102C800071484FF4FA510068B0FBF1F0009000BFBA
:102C90000098411E0091FAD20EE080E0C0F800805A
:102CA000FFF7BCFC074604E0FFF7B8FCC01B022896
:102CB00075D8686A8007F7D42078400760D5E8693E
:102CC0000027C00008D4E86940F08050E861E86956
:102CD000012700F0805000905C480168C90513D4BA
:102CE0000168834641F480710160FFF797FC8246DA
:102CF00006E000BFFFF792FCA0EB0A0064284ED864
:102D0000DBF80000C005F5D5E06801280AD008B15D
:102D1000052813D0286A20F001002862286A20F0D4
:102D2000040002E0286A40F001002862E06841F2F5
:102D3000883B98B1FFF772FC82460BE0286A40F0AE
:102D400004002862EEE700BFFFF768FCA0EB0A0171
:102D500059455AD8286A8007F6D50CE0FFF75EFC83
:102D6000824605E0FFF75AFCA0EB0A0159454CD812
:102D7000286A8007F6D41FB1E86920F08050E86126
:102D8000E06988B36968C1F38101022944D002284F
:102D9000C6F8608004D0FFF741FC044638E034E018
:102DA000FFF73CFC074604E0FFF738FCC01B022895
:102DB0002BD828688001F7D4206AB0F5803F05D170
:102DC0006868A16820F4003008436860D4E908010D
:102DD0000843696821F4741108436860C6F860907C
:102DE000FFF71CFC044606E025E000BFFFF716FCD9
:102DF000001B022809D828688001F7D51BE000BF16
:102E0000FFF70CFC001B022802D90320BDE8F88F55
:102E100028688001F4D40EE00128F7D06868226A9F
:102E200000F48031914204D1616A00F4701088424C
:102E300001D00120EAE70020E8E70000001002408E
:102E400000004242800442420C000020007000401A
:102E50004FF0E020016941F002010161704790F8F4
:102E60005100704770B5040009D0606A002540B178
:102E700025616561A56294F8510040B10CE0012024
:102E800070BD6068B0F5827FF4D0E561F2E784F848
:102E90005050204600F040F8022084F8510020688D
:102EA000016821F040010160A088218900F482704E
:102EB00001F404410843A18901F400610843217C25
:102EC00001F002010843217D01F001010843218B3B
:102ED00001F400710843217F01F03801084394F8A0
:102EE000201001F080010843218D01F400510843B6
:102EF00021680860A069042101EA10402168486047
:102F00002068C16921F40061C1616565012084F810
:102F10005100002070BD000030B585B00024009441
:102F200001940294039400681449884223D1144800
:102F3000816941F480518161816901F4805104917A
:102F4000816941F00401816180690E4D00F0040047
:102F50000490A02000900220019003200390694675
:102F60002846FFF75DFA4020CDE90004694628466F
:102F70000294FFF755FA05B030BD00000030014063
:102F800000100240000801402DE9F84F044690F877
:102F900051001D4616460F46012838D160684FF093
:102FA0000408B0F5827F01D1A06830B3FFF736FB8B
:102FB0008246002F75D0002E73D094F8500001285F
:102FC00025D04FF0010984F8509084F851804FF0DB
:102FD0000008C4F85480A763A687E687C4F8308049
:102FE000A4F83480A4F83680C4F84080C4F8448043
:102FF000A068B0F5004F0CD015E084F85180009324
:1030000013460A46204600F01CF9BDE8F88F02205E
:10301000FBE72068016821F0400101602068016839
:1030200021F48041016020680168490603D40168E9
:1030300041F040010160E068C0B134E0206881687F
:10304000C90709D0007BA16B0870A06B401CA0636E
:10305000E08F401EE08709E0FFF7E0FAA0EB0A00EE
:10306000A84202D3681C01D032E085B3E08F00286B
:10307000E4D11BE020688168C90709D0C068A16B52
:103080000880A06B801CA063E08F401EE0870AE0F0
:10309000FFF7C4FAA0EB0A00A84203D3681C02D0D1
:1030A00016E012E09DB1E08F0028E3D15246294698
:1030B000204601F0C6F808B12020606584F85190E0
:1030C00084F85080606D00289FD001209DE7FFE7C5
:1030D00084F8519084F85080032096E72DE9F84F4A
:1030E000984616468A460446FFF798FA814694F8B1
:1030F000510001281ED1BAF1000F73D0002E71D0FB
:1031000094F85000012815D0012784F8507003204E
:1031100084F8510000256565C4F830A0A686E686CF
:10312000A563A587E58765642564A068B0F5004FB1
:1031300003D00CE00220BDE8F88F2068016821F080
:10314000400101602068016841F48041016020680D
:103150000168490603D4016841F040010160E0685C
:10316000B0F5006F606803D048B3012E27D047E068
:1031700008B1012E1FD1206B21680088C86006E0CD
:1031800020688168890709D5216B0988C160206B97
:10319000801C2063E08E401EE0860CE0FFF73EFAC4
:1031A000A0EB0901414503D3B8F1FF3F03D035E05F
:1031B000B8F1000F32D0E08E0028E1D123E0206B7F
:1031C00021680078087306E02068816889070AD5BD
:1031D000216B09780173206B401C2063E08E401E38
:1031E000E0860DE02BE0FFF719FAA0EB090141455D
:1031F00003D3B8F1FF3F03D010E0B8F1000F0DD0BA
:10320000E08E0028E0D14A464146204601F047F8CA
:1032100008B120206065A06830B109E084F85170E1
:1032200084F85050032086E72068C16880680090C9
:1032300084F8517004F8505F60680028F3D00120D2
:1032400079E72DE9FF4F81B01D46934604464FF0C4
:1032500001090E9EFFF7E2F9074694F851006168F4
:10326000012806D0B1F5827F3CD1A168C9BB0428F2
:1032700038D10298002871D0BBF1000FFBD0002D8F
:10328000F9D094F8500001282CD04FF0010A84F8AE
:1032900050A094F85100042802D0052084F8510071
:1032A0004FF00008C4F85480C4F838B0E587A5870B
:1032B00002992163E586A586C4F84080C4F844805D
:1032C00020680168490603D4016841F040010160AB
:1032D000E068B0F5006F606808D0F0B3012D49D008
:1032E00081E0FFE7022005B0BDE8F08F08B1012DB5
:1032F00039D1206B21680088C860206B801C206356
:10330000E08E401EE0862EE02068816889070FD598
:10331000E18E69B1B9F1010F0AD1216B0988C16051
:10332000206B801C2063E08E401EE0864FF0000979
:1033300020688168C9070CD0E18F51B1C068A16BCA
:103340000880A06B801CA063E08F401EE0874FF0D8
:103350000109FFF763F9C01B01E00BE067E0B04231
:1033600001D3701C50D1E08E0028CDD1E08F002811
:10337000CAD13EE0206B216800780873206B401CA6
:103380002063E08E401EE0862DE02068816889077A
:103390000FD5E18E69B1B9F1010F0AD1216B09781E
:1033A0000173206B401C2063E08E401EE0864FF0CE
:1033B000000920688168C9070CD0E18F51B1C0684D
:1033C000A16B0870A06B401CA063E08F401EE087DB
:1033D0004FF00109FFF722F9C01BB04202D3701C65
:1033E00001D011E086B1E08E0028CED1E08F002818
:1033F000CBD13A463146204600F051FF50B1202053
:10340000606584F8508012E084F851A084F8508000
:10341000032068E7A06818B92068C1688068009038
:1034200084F851A084F85080606D0028F1D001200C
:1034300059E710B5401EB0F1807F01D3012010BDC7
:103440004FF0E02460610F21601701F095F9002032
:10345000A06107202061002010BD4FF0E02001692D
:1034600021F00201016170477047704770B590F814
:103470003C20012A26D0012480F83C40022280F81A
:103480003D2003685A689D6822F070060A6832433E
:103490005A600D4B02689A4208D0B2F1804F05D0B5
:1034A0000A4B9A4202D00A4B9A4204D1496825F04D
:1034B00080031943916080F83D40002180F83C1062
:1034C000084670BD022070BD002C01400004004081
:1034D0000008004010B5040003D094F83D0010B17E
:1034E00007E0012010BD002084F83C00204600F0D9
:1034F0001FF8022084F83D00211D206800F0FAFF2B
:10350000012084F8460084F83E0084F83F0084F8E7
:10351000400084F8410084F8420084F8430084F8B5
:10352000440084F8450084F83D00002010BD0000F0
:1035300008B500680B49884212D10B48816941F4F3
:10354000006181618069002200F400600090022126
:103550001920FFF707F9BDE808401920FFF7F4B874
:1035600008BD0000002C01400010024090F83D1002
:10357000012901D001207047022180F83D10016827
:10358000CA6842F00102CA6000680B49884208D04C
:10359000B0F1804F05D00949884202D008498842DD
:1035A00004D1816801F00701062903D0016841F0C8
:1035B0000101016000207047002C01400004004020
:1035C000000800400168CA6822F00102CA60016870
:1035D0000A6A41F211131A4207D10A6A9B101A4271
:1035E00003D10A6822F001020A60012180F83D102F
:1035F0000020704770B5044690F83C000025012873
:1036000017D0012684F83C60022084F83D00206831
:10361000826822F0770222F47F4282600868502894
:1036200038D00DDC20284FD005DC90B3102811D104
:103630004AE0022070BD302846D040280AD13BE045
:1036400060282FD070280DD0B0F5805F03D0B0F582
:10365000005F12D0012584F83D60002084F83C0012
:10366000284670BDCB68D1E90121206800F07EFFBB
:103670002068816841F0770109E0CB68D1E9012138
:10368000206800F073FF2068816841F48041816008
:10369000E1E719E0CA684968206800F079FF502125
:1036A000206806E0CA684968206800F082FF60214F
:1036B000206800F065FFCEE7CA684968206800F01E
:1036C00067FF40212068F4E7226801461046F0E7D2
:1036D00070472DE9F04104460068C66805694FF05F
:1036E0000007A90713D5B10711D5F91E0161012003
:1036F0002077206880698007204602D0FFF7E8FF26
:1037000004E000F07EF8204600F07CF82777680798
:1037100016D5700714D521686FF0040008610220E7
:1037200020772068806910F4407F204602D0FFF7A0
:10373000CFFF04E000F065F8204600F063F827773B
:10374000280715D5300713D521686FF008000861E8
:10375000042020772068C0698007204602D0FFF748
:10376000B7FF04E000F04DF8204600F04BF8277753
:10377000E80616D5F00614D521686FF01000086130
:10378000082020772068C06910F4407F204602D0CE
:10379000FFF79EFF04E000F034F8204600F032F816
:1037A0002777E80708D0F00706D021686FF00100FE
:1037B0000861204600F028F8280608D5300606D50E
:1037C00021686FF0800008612046FFF74DFE680613
:1037D00008D5700606D521686FF0400008612046C4
:1037E00000F022F8A8060AD5B00608D521686FF0C7
:1037F000200008612046BDE8F041FFF736BEBDE875
:10380000F08170477047000010B500680449884295
:1038100005D1FFF71DFB0349012081F8000110BD10
:10382000002C0140740000207047000000B585B0F6
:103830000021009101910291039100681049884292
:103840001BD11048816941F480418161816901F493
:1038500080410491816941F0040181618069694678
:1038600000F0040004904FF40070009012200190CA
:10387000032003900448FEF7D3FD05B000BD00000F
:103880000038014000100240000801402DE9F84FC7
:10389000044690F842009A4616460D46202802D06B
:1038A0000220BDE8F88FB5B1AEB1002060642221DE
:1038B00084F842102063FEF7B1FEA6858146E685B6
:1038C000A0684FF480582027404501D1206920B1DD
:1038D0002E46002529E00120E3E7002625E04B469F
:1038E000002220212046CDF800A000F0F7FE18B1FC
:1038F00084F842700320D4E726B1A06840451AD06E
:1039000038B108E020684068C0F3080025F8020BD1
:1039100008E0206978B12068406800F07F0000BFAF
:1039200006F8010BE08D401EE085E08D0028D6D121
:1039300084F84270B5E720684068F1E72DE9F84364
:10394000044690F84100984616460D46202802D0BD
:103950000220BDE8F88385B17EB10020606421209B
:1039600084F84100FEF75AFEA6848146E684A068EA
:103970002027B0F5805F02D003E00120E9E720694D
:1039800010B12E4600250EE000260CE080212046D6
:1039900000F0A4FEA8B9C6B116F8010B2168486072
:1039A000E08C401EE084E08C4B464FF00002CDF8E6
:1039B00000800028EAD14FF04001204600F08EFE42
:1039C00040B184F841700320C3E735F8020BC0F31F
:1039D0000800E3E784F841700020BAE7FEE7F8B595
:1039E000044641F080008DF8000017461E46A1886D
:1039F00000222068FEF70CFE4FF4FA652B460122E8
:103A00006946A069FFF76AFBA069FFF728FA012859
:103A1000FAD12B4632463946A069FFF75FFBA06911
:103A2000FFF71DFA0128FAD1A18801222068FEF7CC
:103A3000EFFDF8BD70B50C460546012100F09FF87A
:103A4000024644B1012C0BD0032C0FD0052C13D00F
:103A5000062C17D01BE0002002F0F802E86116E007
:103A6000012002F0F802521CE86110E0032002F08D
:103A7000F802D21CE8610AE0052002F0F802521DAB
:103A8000E86104E0062002F0F802921DE861284691
:103A9000BDE87040012100F0E1B970B50446002195
:103AA000FFF7C8FF0A20FEF78BFC0121204600F03B
:103AB00066F805460A20FEF783FC45F080020121E6
:103AC000204600F0CBF96420FEF77AFC2046216AFC
:103AD00000F0F4F894F82A10204600F043F994F826
:103AE0002B10204600F01FF923220C21204600F065
:103AF000B5F9204600F060F994F82410204600F053
:103B00003BF9FF221F21204600F0A8F994F8250078
:103B100094F82610000100EB4100C2B21D2120469E
:103B200000F09CF9204600F0A3F8208D2021020A25
:103B3000204600F093F994F828202121204600F037
:103B40008DF94021204600F01AF840F03F02402154
:103B5000204600F083F901212046FFF76BFF01208A
:103B6000E0610A20FEF72CFC4221204600F007F815
:103B7000122802D04FF4CA7070BDC82070BD0EB5B7
:103B800001F07F018DF8081001210A46009101AB78
:103B900002A900F003F89DF804000EBD2DE9F047DE
:103BA0000E461546044681889846DDF82090006848
:103BB0000022FEF72DFD4FF4FA673B462A463146B8
:103BC000A069FFF78BFAA069FFF749F90128FAD13C
:103BD0003B464A464146A069FFF7D6F9A069FFF780
:103BE0003EF90128FAD1A1882068BDE8F0470122FA
:103BF000FEF70EBD2DE9F04100250E46074614469E
:103C00002846294601E03154401CA042FBDB01213B
:103C10003846FFF70FFF12213846FFF7B0FF400686
:103C20001FD5FF221221384600F018F9132138461B
:103C3000FFF7A5FF054610213846FFF7A0FF024613
:103C40000D21384600F00AF9AC4200D22546002486
:103C500005E000213846FFF792FF3055641CAC4266
:103C6000F7DB05213846FFF7E5FE2846BDE8F08181
:103C700010B594B0044650220F496846FCF7EDFC9D
:103C800094F824100120884001F007FA94F82520C8
:103C90006B4603EBC203D3E9002301F077F801F090
:103CA000CDF9102801DD012100E00021204600F0BF
:103CB00025F814B010BD0000F055000870B5054699
:103CC000C8044411C4F307420621284600F0C6F890
:103CD0000520FEF775FBC4F307220721284600F0F4
:103CE000BDF80520FEF76CFBE2B20821284600F083
:103CF000B5F8BDE870400520FEF762BB70B50C4614
:103D000005462621FFF73BFF14B140F0080201E011
:103D100000F0F7022621284600F0A0F8BDE8704028
:103D20000A20FEF74DBB10B52D2901D22D2105E04B
:103D3000F02901D9F02106E0782904D805222D398F
:103D400091FBF2F103E00A221E31B1FBF2F1C9B29C
:103D50002031CAB20B2100F081F8BDE810400A20E2
:103D6000FEF72EBB10B50A46092100F077F8BDE832
:103D700010400A20FEF724BB70B50C4606460C29FD
:103D800001DD0C2402E0072C00DA07241E21FFF7D6
:103D9000F6FE05460A20FEF713FB64F31F15EAB290
:103DA0001E21304600F05AF80A20FEF709FB304683
:103DB000BDE87040FFF75CBF10B504461E21FFF759
:103DC000DEFE40F007021E21204600F047F8BDE865
:103DD00010400A20FEF7F4BA2DE9F0410F461C46C8
:103DE000164680460121C569FFF724FE0E21404694
:103DF000FFF7C5FE02460D21404600F02FF832467F
:103E00002221404600F02AF833463A460021404637
:103E1000FFF7E5FD03214046FFF70CFE1221404667
:103E2000FFF7ADFE00070BD5FF221221404600F040
:103E300015F829464046FFF7FDFD0120BDE8F08159
:103E4000641E2404240C03D00120FEF7B9FAE5E730
:103E500029464046FFF7EEFD0020EFE70EB541F0A2
:103E600080018DF8081001218DF804200A46009188
:103E700001AB02A900F001F80EBD2DE9F0470E4696
:103E80001546044681889846DDF820900068002297
:103E9000FEF7BEFB4FF4FA673B462A463146A0695F
:103EA000FFF71CF9A069FEF7DAFF0128FAD13B46BB
:103EB0004A464146A069FFF711F9A069FEF7CFFF16
:103EC0000128FAD1A1882068BDE8F0470122FEF759
:103ED0009FBB00002DE9F041044616460F4680685E
:103EE000FDF796FF207B08B100250FE00120BDE81B
:103EF000F08100BFFEF7EAF96421A068FEF748F9F7
:103F0000A068FEF76FF86D1C3880EDB2A068B5426E
:103F1000F0D3FEF73BFA0020E9E710B504468188AC
:103F200000680122FEF774FB0120207310BD10B55C
:103F30000446818800680022FEF76AFB0020207397
:103F400010BD30B562F30F04C0E90014002262F323
:103F50000705C0E9023530BD3EB500241048009485
:103F6000019402940D498460016004730475012575
:103F700005614FF460214460C161FEF737F808B174
:103F8000FDF7FBFECDE90045694605480294FDF7C3
:103F9000ABFF002801D0FDF7F0FE3EBD002401403C
:103FA000840100202DE9F04385B0002435480094B9
:103FB000019402940394816941F010018161816947
:103FC00001F010010491816941F020018161816952
:103FD00001F020010491816941F00401816181694E
:103FE00001F004010491816941F008018161806957
:103FF000254F00F008004FF4005504900022294698
:104000003846FEF705FBDFF8848000220821404691
:10401000FEF7FEFADFF87890012203214846FEF70A
:10402000F7FA0095022601250396CDE90154694669
:104030003846FEF7F5F90820CDE90005CDE902463E
:1040400069464046FEF7ECF90320CDE90005CDE9CD
:10405000024669464846FEF7E3F9A80200900D487B
:10406000CDE9010469464846FEF7DAF9002201214C
:104070002820FEF777FB2820FEF766FB05B0BDE899
:10408000F0830000001002400010014000080140D1
:10409000000C014000001110104810B50E490160DD
:1040A0004FF48271416000218160C1604FF4007261
:1040B0000161C0E905121022C0E907214162816255
:1040C0000A21C162FEF7CEFE002803D0BDE81040F1
:1040D000FDF753BE10BD000000300140E401002098
:1040E00010B586B0002418480094019402940394FB
:1040F00004941449059401604CF24F31C0E9011455
:104100004FF4C871C0E9031444618461FFF7E2F918
:1041100008B1FDF732FE4FF48050009069460A481E
:10412000FFF768FA08B1FDF728FE049404A90648D1
:104130000594FFF79BF9002801D0FDF71EFE06B09D
:1041400010BD0000002C01403C0200200C4810B5BE
:104150000A4901604FF4E1314160002181600C2285
:10416000C160C0E904128161C161FEF75DFA0028F7
:1041700003D0BDE81040FDF700BE10BD003801407F
:1041800084020020FEE7FEE71CB50446FF20002263
:104190008DF800008DF8042009B98DF800200A235D
:1041A000012269462046FFF7C9FB0A23012201A923
:1041B0002046FFF76BFB9DF804001CBD2DE9F04184
:1041C00000260F468046344627FA04F000F001012D
:1041D00000254046FFF7D8FFFF2800D10125A54064
:1041E0003543641CE4B2EEB2082CEDD33046BDE892
:1041F000F0817CB50546F02000248DF800008DF894
:1042000004404FF41651284600F0C2F80A23012258
:1042100069462846FFF792FB0A23012201A9284696
:10422000FFF734FB4FF4E131284600F0B1F89DF878
:1042300004009DF80010884200D1012420467CBD76
:104240007047F8B5044640684FF48273984217D11E
:10425000A0684FF48065B0F5004F01D0A8420FD19F
:104260002068066826F0400606606068984207D11C
:10427000A068A84204D100920B460022012103E06D
:1042800000920B4600228021204600F023F80028EF
:1042900004D0606D40F0200060650320F8BDF8B5E3
:1042A00015460E460B46009204460122022100F0FC
:1042B00011F840B93346002280212046009500F0D5
:1042C00009F8002804D0606D40F0200060650320EC
:1042D000F8BD00002DE9F8431E4691468846044685
:1042E000089DFEF79BF9401B351AFEF797F9074624
:1042F00025480068C0F3CB30684338E0701C37D0E5
:10430000FEF78CF9C01BA84203D215B1009860B328
:104310002CE02068416821F0E00141606068B0F560
:10432000827F0BD1A068B0F5004F02D0B0F5806F4E
:1043300004D12068016821F040010160A06AB0F555
:10434000005F09D12068016821F4005101602068F4
:10435000016841F400510160012084F851000020FF
:1043600084F850000320BDE8F8830025401E00902B
:104370002068816838EA010004D000214945BDD198
:104380000020F0E70121F9E70C0000207047000051
:104390002DE9F0414160044600683549884202D168
:1043A000FEF78EFB01E0FEF77BFB0246E36964202B
:1043B0003221002B02EBC20303EB021362682BD005
:1043C0009200B3FBF2F5B5FBF0F5B3FBF2F66FF03C
:1043D00018077D4306EB8505B3FBF2F601EB0515E7
:1043E000B5FBF0F5B6FBF0F605F0F00505EB0615AC
:1043F000B3FBF2F6B3FBF2F2B2FBF0F27A4306EB58
:10440000820201EB0211B1FBF0F000F00F00216815
:1044100028448860BDE8F0815200B3FBF2F6B6FB99
:10442000F0F6B3FBF2F7B3FBF2F56FF0180C06FBF6
:104430000CF607EB860601EBC606B5FBF0F5B6FBFE
:10444000F0F62D0106F0F80605EB4605B3FBF2F693
:10445000B3FBF2F2B2FBF0F202FB0CF206EB8202CB
:1044600001EBC201B1FBF0F000F00700CFE7000064
:1044700000380140FEF710B930B593B028216846E6
:10448000FCF71DF914210AA8FCF719F900240125ED
:104490000F9410942804CDE90050119412940794BD
:1044A0006846FEF745FB08B172B6FEE70F20CDE97E
:1044B0000A0580200C90C000CDE90D0400210AA857
:1044C000FEF758FA08B172B6FEE702200F9080039B
:1044D00011900FA8FEF7D8F9002801D072B6FEE7B8
:1044E00013B030BD704700000148FFF7F2B800007C
:1044F0003C020020F0B50268194B1A4C1A4D4FF0DF
:104500008047984205D0B84203D0A04201D0A842CB
:1045100003D122F070064A683243984205D0B8426F
:1045200003D0A04201D0A84203D122F44074CA684B
:1045300022434C6922F08002224302608A68C262F0
:104540000A688262984201D10969016301214161CF
:104550000169C90703D0016921F001010161F0BDC2
:10456000002C0140000400400008004010B58468A1
:1045700042EA032224F47F440A432243826010BDAE
:10458000826822F070020A4342F00701816070479E
:1045900010B5036A046A24F001040462846924F0FB
:1045A000F00444EA021423F00A020A43846102621E
:1045B00010BD10B5036A046A24F010040462846913
:1045C00023F0A00324F4704444EA023243EA0111C8
:1045D0008261016210BD01680C3151E8002F22F4A4
:1045E000907241E80023002BF5D10168143151E8A5
:1045F000002F22F0010241E80023002BF5D1016BCE
:10460000012909D101680C3151E8002F22F0100274
:1046100041E80023002BF5D1202180F84210002131
:104620000163704770B5044600680169E26821F4CF
:104630004051114301612169A06808436169084341
:104640002168CA6841F20C639A430243CA60206839
:104650004169A26921F44071114341611E492068FA
:10466000884202D1FEF72CFA01E0FEF719FA00EBBE
:10467000C00101EB0012606864218000B2FBF0F31E
:10468000B3FBF1F36FF018067343B2FBF0F5B2FB26
:10469000F0F605EB8305322303EB0515B5FBF1F5C9
:1046A000B6FBF1F605F0F00505EB0615B2FBF0F6EA
:1046B000B2FBF0F0B0FBF1F06FF01802504306EBE4
:1046C000800003EB0010B0FBF1F0216800F00F0058
:1046D0002844886070BD0000003801402DE9F8438F
:1046E000984617460D460446089E24E0701C22D0CA
:1046F000FDF794FFA0EB0800B0421AD8CEB12068B5
:10470000C168490717D5802D15D0402D13D00168F9
:10471000C94309070FD4016800254068009020466E
:10472000FFF759FF0820606484F840500120BDE87D
:10473000F8830320FBE72068006835EA000004D016
:104740000020B842D2D00020F1E70120F9E7FEE7CF
:10475000490050EAC12018BF04204A0D18BF40F09C
:10476000010040F2FF72B2EB515F08BF40F002005F
:10477000012808BF052070470907090E002804DB3F
:1047800000F1E02080F80014704700F00F0000F105
:10479000E02080F8141D704730380A2801D201202B
:1047A0007047002070470CB500214FF47A730A4619
:1047B000009109E0019100BF019A521C01929A42B6
:1047C000F9D3009A521C00928242F3D30CBD000030
:1047D0008EB0FDF769FFFFF74FFEFFF7E3FBFFF732
:1047E0005BFCFFF7B3FCFFF7B7FBFFF779FCC34FA8
:1047F0004FF4005529463846FDF702FFC04E00240D
:1048000003A886F80041C6F80441A6F80C41C6F892
:10481000084100F099F92C2203A9A6F15400FBF7F6
:104820001CFFB84AA6F15400012104C0022320F85D
:10483000081B40F8042C038042608A020281B24ABD
:10484000C26040F2B112426107220276427681765E
:10485000FF2181776421C17708218183A6F154006B
:10486000FFF71BF9C82807D06420FFF79CFF2946F3
:104870003846FDF7C5FEF7E7C820FFF794FFB946B5
:1048800029464846FDF7BCFEC820FFF78CFF2946A5
:104890003846FDF7B5FEC820FFF785FF29463846A4
:1048A000FDF7AEFEC820FFF77EFF29463846FDF72C
:1048B000A7FE934805215438FFF7BCF89048934968
:1048C0001838FDF7A5F98E481838FDF7A7F98C4878
:1048D0001838FDF7B3F98A481838FDF7CDF9DFF835
:1048E00020A2AAF1180A57469AF80F008DF808007E
:1048F0009AF80E008DF809007F208DF80A005046C6
:10490000FDF78CF95046FDF707FA02A95046FDF76E
:1049100013FA5046FDF782F95046FDF7FDF90121E3
:104920005046FDF73FF95046FDF778F95046FDF740
:10493000F3F95046FDF7A0F97969C6F80811B046B9
:10494000734B0822734903A8FFF7FBFA0DF10C0C17
:10495000AAF110009CE84E0080E84E0000F1A80B80
:104960004E46012229463046FDF752FEFEF775FD00
:1049700001210020FDF728FF002229463046FDF7DF
:1049800047FE5F480394FBF749FE0A2813D305A8A6
:10499000009003AB04AA60A15948FBF70BFD032864
:1049A00009D160A104A8FBF7B1FE20B95EA105A85A
:1049B000FBF7ACFED0B1002729463046FDF720FEBC
:1049C000C820FFF7F0FE7F1C042FF5DB88F80041BC
:1049D0004B4805215438FFF72DF880214848FBF754
:1049E0006EFE80215846FBF76AFEBAE74F490398EE
:1049F000884204D8643000EB8000010101E04FF4EC
:104A00007A514B48C8F80411FEF7DCFD4848D8F845
:104A1000041147460268D162D8F80411C1600168E8
:104A20004C6200686FF0010101614148FEF79EFD94
:104A300033482838FFF771FA31481838FDF7EEF897
:104A400000BB2F481838FDF767F92D4801211838A9
:104A5000FDF7A8F82A481838FDF7E0F82848183874
:104A6000FDF75AF926481838FDF706F9DAF8140068
:104A7000C7F8080106E000BFFEF7EFFC01210020A7
:104A8000FDF7A2FE97F800010128F5D1294901227E
:104A9000A1F59A70FFF71EFA002899D11848283816
:104AA000FFF745FA8021B8465846012322A2FBF7BA
:104AB000A1FB0746D8F8080100F002FDCDE900018E
:104AC00008EB0700C7F180011CA28030FBF792FBC6
:104AD000074408EB0700B8F80C31C7F1800119A2B0
:104AE0008030FBF787FB3844C2B205484FF47A7335
:104AF00059465438FFF770F96AE70000001001408A
:104B000074000020000C0140E40100208402002019
:104B1000840100200008014025327320256C752097
:104B20002532730073740000666E00003133330366
:104B30003C020020800100202564000020252E3248
:104B4000660000002025640000B58BB040F2B11172
:104B5000089107218DF824108DF8251001218DF87A
:104B60002610FF218DF82A1064218DF82B100821C2
:104B7000ADF828102C226946FBF76FFD0BB000BD85
:104B800010B500290AD00878002807D005487844D5
:104B9000FBF7BCFD002801D0002010BD024878447E
:104BA00010BD0000660B00005E0B000010B5002970
:104BB0000AD00878002807D005487844FBF7A6FDFE
:104BC000002801D0002010BD0248784410BD00002C
:104BD000560B00004E0B000021F00042A2F1605283
:104BE000B2F5801F01F0004328BFD2F17F6C0BD9D2
:104BF0005FEA001C43EAC20242EB507018BF7047E4
:104C000028BF20F001007047B2F5801FBCBF1846D6
:104C100070474FEA410C1CF5001F02D2084600F015
:104C2000C0BC70B500F00EFB00000089FFF7F6BFB6
:104C30004FF00040A0F580007047000010B591EAE9
:104C4000030F48BF83F0004300F15883841A71EBCF
:104C5000030C05D2121943EB0C03001B61EB0C0192
:104C6000DFF824E14FEA1154A4EB135C1EEA430F72
:104C700018BF9EEA445F73D023EA0E03DCF1200ED6
:104C800021EA045143F4801332D322FA0CFE10EBD4
:104C90000E0023FA0CFE41EB0E01CCF1200E03FABC
:104CA0000EFE10EB0E0051F10001B1F5801FCCF1AA
:104CB000200E32D201EB045112FA0EF2BDE8104080
:104CC00058BF7047401C38BF5FEA420218BF7047A8
:104CD000002814BF20F0010041F100014FEA410318
:104CE00013F5001F38BF7047A1F1C04100F0F8BABA
:104CF000012A43EB0302ACF1200CDCF11F0E32BFA2
:104D00004FF0000E23FA0CF310EB030041EB0451BB
:104D1000B4EB115FD0D0A1EB045101F5801149082B
:104D20005FEA300001EB04510ED350F1000038BFB0
:104D300012FA0EFE08D1BDE81040C9E7401C38BF8A
:104D40005FEA4202CAD1C3E7BDE810404FEA41031F
:104D500013F5001F38BF7047A1F1C04100F0C0BA81
:104D60009EEA445F08D011EA5E0FBDE8104004BF20
:104D700001F0004100207047BDE8104070B500F020
:104D800061FA00BF64FBBE3E0000E0FF2DE9C041B8
:104D900030B4DFF8A0C23CEA111418BF3CEA131487
:104DA00000F0EC8081EA03051CEA111444EAD57492
:104DB00018BF1CEA131500F0C780A4EB05044FF0E0
:104DC000004545EAC12145EAC32341EA505143EA7F
:104DD000525304F17F74994204F500344FEAC02025
:104DE0004FEAC22208BF904200F09C804FEA136550
:104DF0000FF24016765D4FEA134506FB05F7C7F143
:104E0000807706FB07F74FEAD737A7FB03687642A0
:104E1000C8F58038A7FB06CE38BFA8F1010807FB0C
:104E200008E64FF0000EA6FB028CE6FB03CEDCF199
:104E3000000CCEF1004E38BFAEF1010EA6FB0C58AF
:104E40004FF000074FF00005E6FB0E87A1FB08C6F8
:104E5000A0FB07CE16EB0E0645F10005E1FB07654A
:104E600015F1E04E7EBFA4F580345FEA46066D4141
:104E700016F1800745F100054FEA17274FEA06664D
:104E800047EA0567A6F1DE46B6F1805F4FEA1525D1
:104E90001FD9384624F0010C05EBC471BCF1FE6F3C
:104EA00001EB0C1102D8F0BCBDE8008124425CBFCC
:104EB00001F5801E9EEAC47F02D4F0BCBDE80081EB
:104EC000244238D4F0BCA1F1C041BDE8004100F05B
:104ED00007BA4FEAD22242EA43524FEAD323A7FB52
:104EE00002864FEAD02040EA415007FB03661EEAE3
:104EF0000E0F4FEAD12105FB026658BFA6EB005604
:104F0000B6EB00564FEA520E4EEAC37E18EB0E0E79
:104F100056EB530EBDD518EB02085E417F1C55F1D0
:104F20000005B6E74FF480154FF000074FF000067C
:104F30004FF00008ADE7F0BC4FF0000001F1C041B8
:104F400001F00041BDE8008111EA0C1F0CEA1315C5
:104F500000D00CE013EA0C1F00F025804FF0000099
:104F6000F0BC81EA030101F00041BDE80081F0BC22
:104F7000BDE8004181EA030100F0B2B9F0BCBDE830
:104F8000004170B500F05EF9097EFC3E00F007B804
:104F900081EA03014FF0000001F00041704781EA0F
:104FA000030100F09DB9F0BCBDE800414FF00000E6
:104FB00021497047FFFDFBF9F7F5F4F2F0EEEDEB58
:104FC000E9E8E6E4E3E1E0DEDDDBDAD8D7D5D4D307
:104FD000D1D0CFCDCCCBCAC8C7C6C5C4C2C1C0BF53
:104FE000BEBDBCBBBAB9B8B7B6B5B4B3B2B1B0AF59
:104FF000AEADACABAAA9A8A8A7A6A5A4A3A3A2A13D
:10500000A09F9F9E9D9C9C9B9A99999897979695F7
:1050100095949393929191908F8F8E8E8D8C8C8B93
:105020008B8A89898888878786858584848383821B
:10503000828181800000FF070000F87F4FEA410372
:105040004FEA5353A3F58063D3F11E03C8BFD3F1D6
:10505000210C0CDD4FF0004242EAC12242EA5052DC
:1050600032FA03FC8CEAE17CACEBE1707047102B68
:10507000C4BF0020704703F5787CBCF1FF3F04D02B
:105080006FF0004282EA2100704770B500F0DAF854
:105090004992248000207047F2E710F0004248BF98
:1050A0004042B0FA80F310FA03F10AD0C3F11D03B5
:1050B00003F580634FEA415002EB035202EBD1212A
:1050C00070474FF000007047B0FA80F310FA03F118
:1050D0000AD0C3F11D0303F580634FEA41504FEA44
:1050E000035202EBD12170474FF0000070470000DF
:1050F000DFF848C170B51CEA111E1EBF1CEA13156B
:105100009EEA0C0F95EA0C0F00F06F8081EA030411
:1051100023EA4C134EEAD47E21EA4C1141F480116B
:1051200043F48013AE44A1FB024CA0FB0365AEF137
:105130007F7E361955EB0C05A1FB034C4CF10003A7
:10514000A0FB021C16EB0C06654153F1000309425B
:1051500018BF46F0010613F4007F0BD14FEA03316C
:105160004FEA0530340341EA155140EA16506FF01A
:1051700003020AE04FEAC3214FEAC520F40241EAE4
:10518000555140EA56506FF0020202EB2E4201EBFD
:10519000025585EACE710AD05FEA440C18BF24F0AC
:1051A000004450F1000041F1000120EAD47040F2C7
:1051B000FE7C624500D270BDA84214BF4FF080440F
:1051C0004FF04044002E08BF0024BEF1806FA8BFFE
:1051D000A1F1C041BDE8704080F282804FF0000034
:1051E00001F1C04101F0004170479EEA0C0F0CEA4A
:1051F000131518BF95EA0C0F06D04FF0000081EA96
:10520000030E0EF0004170BD00F01CF88900013E55
:1052100000F007B800F009B84FEA430C5FEA5C5CA5
:1052200008D081EA030100F05BB84FEA410C5FEA65
:105230005C5CF6D14FF00000014970470000FF07A9
:105240000000F87F0EF1020E2EF0030E5EF8046BE4
:10525000364205D4012A43EB030515F5001F12D889
:10526000012841EB010C1CF5001F0CD80ED14FEAB0
:10527000D17C15F5001F0CEB4C0C0CF1020C08BF97
:105280004CEBD37C04E04FF0080C01E04FEAD37CF8
:105290000CEB4C0526FA05F606F00706B6F1040CF1
:1052A00006D20EEB860CBDE870404CF0010C604756
:1052B000DFE80CF0090B02024FF000414FF0000054
:1052C000A1F5002170BD19461046012851EB0104DB
:1052D00018BFD4F5001484BF002001F0004170BD58
:1052E0000808A0F500114FEA3101704710B591EAA6
:1052F000030F48BF83F000433FF5A8AC841A71EB5D
:10530000030C07D212198CF0004C43EB0C03001B6A
:1053100061EB0C01DFF8A4E14FEA1154A4EB135C3C
:105320001EEA430F18BF9EEA445F00F0B08023EAF4
:105330006E03524221EA0451C3EB6E0338BF5B1E79
:10534000DCF1200E25D322FA0CFE10EB0E0043FAFE
:105350000CFE41EB0E01CCF1200E03FA0EFE10EB19
:105360000E0051F10001CCF1200E29D412FA0EF2F8
:1053700001EB0451BDE8104058BF7047401C1CBFF2
:10538000B2F1004F704700280CBF491C20F001000B
:10539000704712EB020E43EB030218BF4FF0010EF1
:1053A0004EEA4202ACF1200CDCF11E0E54D943FA55
:1053B0000CFE10EB0E0051F1FF31CCF11E0ED5D5D5
:1053C0000EF1010E12FA0EFE404141EB010101EB1C
:1053D000445C5FEA5C5C10D910EBDE7001EB0451B9
:1053E00038BFBEF1004FBDE8104018BF704700281D
:1053F0000CBF491C20F00100704730D24FEAD42C7A
:1054000011F5001124F400641BD0B1FA81F20B3ABB
:10541000A41AA41ED2F12003914030FA03F31943D9
:10542000904001EBCC71002C01EB0451BDE8104021
:10543000A8BF704701F1C0414FF0000001F00041EA
:105440007047B0FA80F310FA03F100D110BDE41AEE
:10545000173C4805C90AE4E701EB045110BD4910A7
:1054600001EB0451BDE810404FEA300002E04FF07C
:10547000000170474A0008BF0042F8D0B2F5001F93
:1054800028BF704701F000414FF0000070479EEACE
:10549000445F07D011EA5E0FBDE8104004BF002151
:1054A00000207047BDE8104070B5FFF7CBFE00BF8D
:1054B00040DFF63E83F00041104670470000E0FFF9
:1054C00043004FEAD30C4FEA3C0C43401FBF400758
:1054D0000CF1605113F0FE4F70471CF0006F03D1C8
:1054E00000200CF0004170470CF0004343EA50707C
:1054F00010B540EACC0000F00EF800BF00000092AA
:105500004FEA0001FFF7ECBE4FF000414FF0000002
:10551000A1F5002170470EF1020E2EF0030E5EF889
:10552000044B244204D44FEA4102B2F17F4F11D818
:105530004FEA4003B3F17F4F0CD80ED14FEAD07C35
:10554000B2F17F4F0CEB4C0C0CF1020C08BF4CEB92
:10555000D17C04E04FF0080C01E04FEAD17C0CEB69
:105560004C0324FA03F404F00704B4F1040C06D24B
:105570000EEB840CBDE810404CF0010C6047DFE8F6
:105580000CF0070802024FF00040A0F5800010BDAB
:105590000846420018BFD2F1807288BF00F0004078
:1055A00010BDFF2141EAD050C0057047FBF723BA78
:1055B000010202030405060708090A0B0C0D0E0F71
:1055C0001010010202030405060708090A0B0C0D5E
:1055D0000E0F101000000000000000000102030484
:1055E0000607080900000000010203040000000093
:1055F0003333333333331F40CDCCCCCCCCCC2440ED
:105600003333333333332F40CDCCCCCCCCCC3440BC
:105610000000000000403F409A99999999D9444070
:105620000000000000404F400000000000405F40CC
:105630000000000000406F400000000000407F407C
:1056400002400000000000A0000000000540000033
:10565000000000C8000000000C4000000000409C5A
:1056600000000000194000000020BCBE0000000047
:1056700034400000BFC91B8E00000004B54000008C
:10568000504BCFD06607E2CF010000006C41000014
:105690003E8251AADFEEA73401000000D94200008B
:1056A000DCB5A0E23A301F97FFFFFFFFB4450000D2
:1056B000FD25A0C8E9A3C14FFFFFFFFFFF3F00008A
:1056C0000000008000000000FF3F0000000000809C
:1056D000000000002058000800000020200000000A
:1056E0002801000840580008200000201009000090
:1056F000440100081C00000043000000F8FFFFFF09
:105700000C0000000E0000000F0000002E00000042
:105710001001000043000000F8FFFFFF0040404080
:105720004040404040404141414141404040404074
:105730004040404040404040404040404005020220
:1057400002020202020202020202020202202020DF
:10575000202020202020200202020202020290903B
:105760009090909010101010101010101010101039
:10577000101010101010101002020202020288888D
:105780008888888808080808080808080808080899
:105790000808080808080808020202024000000081
:1057A00000000000000000000000000000000000F9
:1057B00000000000000000000000000000000000E9
:1057C00000000000000000000000000000000000D9
:1057D00000000000000000000000000000000000C9
:1057E00000000000000000000000000000000000B9
:1057F00000000000000000000000000000000000A9
:105800000000000000000000000000000000000098
:105810000000000000000000000000000000000088
:1058200001000000100000000000000000127A00DB
:10583000330800CC0000BE09004E00034400000005
:04000005080000ED02
:00000001FF
